S014000046696E616C50726F6A6563742E737265634F
S11300000C94AE170C94CB170C94CB170C94CB1701
S11300100C94CB170C94CB170C94CB170C94CB17D4
S11300200C94CB170C94CB170C94CB170C94CB17C4
S11300300C94CD170C94CB170C94CB170C94ED1790
S11300400C940C1A0C94CB170C94CB170C94CB1760
S11300500C94CB170C94CB170C94CB170C94CB1794
S11300600C9484190C94CB170C94CB170C94CB17C9
S11300700C94CB170C94CB170C94CB17AA03B10098
S1130080E6018502EC01280260015D024502DF0100
S1130090AE01B0016A030A010201EE033D01500101
S11300A0C102BB015F028801D001AA02DC01B401D4
S11300B088012703E7015D009F031902C700D202EC
S11300C0BF01420202023F01C202270291018C01D8
S11300D0BB029A024000D802F9028D009502030285
S11300E0E7018D02F8006C02AA026D018F01610222
S11300F0F402A100E5018A03C8000F02680284012A
S1130100E1022401BE0128037E016C013302F602E0
S113011046011F0196036A017301B7025201D60218
S1130120B701FE005803E50124012502C902E301D9
S1130130C600220336020601BF026D017302740277
S11301407E000B039502DB000D02A2024102E200D5
S11301506702D802FB007602C401EC010B037A00AB
S11301604C025303CD00C7019E0258024801B90155
S113017012035901FF01220280014403F7005801D0
S1130180CC0325014D01B4024802B5015D01D4023E
S1130190F1019801530258011403C3018900C303F8
S11301A0E301C200BB024202F00168014902790284
S11301B07C013E027501A1028E022B002C03D302A6
S11301C0670085026802EB01BA01BE01AC02BD0101
S11301D0F601AD0128021203590036029F0378008C
S11301E00202B302C2011402780172023A02B2019D
S11301F0CF01DC013203F5003901F8030601500197
S1130200F902A8013B029701E901AF02AD01BA016D
S1130210C7010203B9018B00BC03ED01AF00050364
S1130220C701180202025901D50200027901CF0167
S1130230B5025A025C000403DD026600B502220224
S1130240C3017B020D01890293023F01C6017D02B5
S1130250AE02A5001A0280039D00190293027201E6
S1130260C0022F01E1012503450189016C02BB0293
S11302702D0154019E0343016701E0025901AE02BE
S1130280B20121016703AE0120016C02A802B00192
S1130290F2003A031902EC00DB028B0151025C020A
S11302A09D002B036A02BA005302A302FF01FB0064
S11302B08C02C802DB007D02EE01DC01E3028D004A
S11302C077023A039800FB01C10215024701E601D7
S11302D00F033C01F2014C0289011303F800880169
S11302E0C903E8006401EF02150299018901DF02E4
S11302F0DC017E016F027A01E702AD01B900D5038A
S1130300AA01BB00FF022C02BF01880160026E0239
S11303105C014302A7018602610251005003A60258
S11303204700C1027202B101C701DE01AC02A101A2
S1130330E501E2012A02D6026D0069028403470046
S11303402B02D8028E0109029A017C022802900134
S1130350F701FB01F402EF007301F303D0005E0127
S11303602E0389011A02B201FD01A9028301CB0106
S1130370FE01D2029601C300CC03BA01A5003A03E0
S1130380C301EB010E027401DB02D80170011102FA
S1130390A0021F0287002803B5024900DF023702CA
S11303A0980173022A019B0276021D0101028A024E
S11303B06702B8004D02670375002F02BA025501A7
S11303C0A4024601FD0115031501B001990278024A
S11303D02201900198031A0169010B03540186025A
S11303E0BB014501680379012B01AE027A02870142
S11303F02A014803F301DC00FD029D012902500299
S1130400C2003C033B02A90099029502BF012301EB
S1130410AD02AB02C2008F021102C101C202AC00E4
S11304209702180370003602D602CE015501150258
S1130430FE021F01F20174028501E4020701B50105
S1130440B803B30088012103D8018801BD01DE028D
S1130450C0016F018F029001B602A401EC00D80321
S11304607201C3003F0307029301B50171025802F0
S113047045015302D10161023E0281006803730207
S1130480350001036D027601E101FD019E02870141
S1130490E10113021E029F028E0093025D032100FC
S11304A05C02F20254010902C2017B0210027C01C7
S11304B022020D02B402F800AC01DE039E007B01AF
S11304C05C035E010102D801090298026401E5019E
S11304D02B029A0280010201CD038501AA006F0359
S11304E0B101C00127028D01D302B50173014C0291
S11304F07F02EC01BF00400384023A000E03410274
S1130500680176024B019F0255020A013C028902EE
S11305102202DA007B02410357005002D8022F0165
S1130520910266010F02FD02F100DE01B802300201
S11305302501CD018203F1007801320342016102F9
S1130540D00164015C034D014301E60241026901EB
S11305506A014903C801DB002203A401FE01510220
S1130560E9003F030D02A700DC027902860158016D
S1130570C6028202B300AA022B029E01AB02D30080
S1130580AC02EF0257007402DC02870171014202DF
S1130590E0020601FE0197027601B9022201DB01A5
S11305A09A038900B501450395018401F501CF0241
S11305B0A2016D01B1029A018302A9011E01CB03BC
S11305C03E01D9007703D7017101EC0177023902AA
S11305D038016A02F00136022802B70070033D02B6
S11305E033003F035A023E010802180285027201D9
S11305F0E9013E0206026F02BC00B3022D030A00A9
S11306009402FD0216011602EB016C02F80174015A
S11306104D02110276020F01E001BA037600A20135
S11306207F032A01F20105020B027F02500104023A
S11306304A025D0278014201BE035201BD009F03DC
S113064093019A014B02A001C0029A0181017E022A
S11306505302C401FE004B034D02390040033C0227
S1130660370186026D0196023602060174027A028F
S1130670E2010A01A1020E0343007902EA02030126
S113068088028D011502DF02DB000F02C902E701B7
S1130690380108025E03CF0094015303260142028D
S11306A0EF017B0144032A01640112030102580192
S11306B0AF013A039B01E70047039E01D4015E02A8
S11306C00F013403E301B3001703500256019701ED
S11306D0D3025202B000CA02390277019F02FE001F
S11306E0B202C3024D00B102D30243019B0169026D
S11306F0B402F4001502B3025E0197024701F60149
S113070073036C00E9015B034E018F012F02B302F6
S113071085017801D00297015402BB014C01B0035A
S11307201201FC00A4039E015A012A02710215025F
S113073037018502020207021F02F0006903080262
S1130740410078033A020D013B022A02600267016C
S1130750FA015F02E6014A02F100C502F602020054
S1130760CD02FA02D900310213025002E3017901E9
S1130770730209023E0233010C028A035900D301B9
S11307809603F100EF0137020002640249012602D8
S11307905B0220027F0181019F032401DF00C70364
S11307A06A017D017902AB01A40289019701A402C7
S11307B02102AA0143014603140248006F032A02DE
S11307C00B01A3028A0181021D020D01A4025F0232
S11307D0AC014501BA02D3023E00A702EE02D500E5
S11307E08B02B6010F02C002D4004002CB02A30167
S11307F059013D022C03B500BB01680302012D021F
S113080016028801250314018B012F03BE01570131
S1130810F5011D037001020166038C01AF0176022C
S11308202F011C03C101CB0047031E023301DD016C
S1130830D2021D02BB00EC023B024F01A0022A01BE
S1130840AB0298025300E902BC020701D2018702FD
S11308507F02EE003402C3023F017F0272010502EF
S113086046035F00200261030801A80165028902B2
S11308706D019001E8028A012B02D80172018903FB
S1130880F2002801C4035F0151016B025D02EF0114
S113089045019F020802DA01230226015303D9010C
S11308A05C00A8030E02E7007702320235026701FA
S11308B011027502C20132022B01C802BD020A00F4
S11308C00503E802A100590235022902D501890174
S11308D09102F7010F0261012C0251034B0009023E
S11308E09D03B600FA016902E8014902500145027C
S11308F06002E6019401BA01730300010C01E203F2
S113090039016C01AC02AA0182028401B201BC0269
S1130910EC019F0189013203DE01660097030C029A
S1130920E500C902A10161020B021F01CA023B02D8
S113093082018701C50294024800D602E502A8009C
S11309409B02DD01FB01A302DA006B02C002650118
S113095087016802EF02A800E9017103DA002402AA
S11309604202890102030C01B4013D037C016501CB
S11309703702F1024C0129017D03700193019702B2
S11309804701FB02A901EB006903E6011E012702EE
S1130990C202E701D5000C032F022A01AD02530164
S11309A096027302660019039902D6001102990295
S11309B04202F5005702C6021E017402A00106029B
S11309C01703610054025803C800CF019402530274
S11309D05F01B101F70274010C02FD018D015B039B
S11309E0E0005A01D3031F015801AC023B02CC01C1
S11309F05F01B5020102B201320256013103B201B4
S1130A008400CC03DA01CF00B8022D020502740180
S1130A102A027D029C0127026501BD028602210093
S1130A203603C80273008B024D02F901D101A20101
S1130A30A402DE01EC0195013F0214034C004002C4
S1130A4094037E0012029702C401330263015E0222
S1130A505802B401B401E9013B03E9004101EF0389
S1130A6004016801E2029C015E028C01CD01C7020F
S1130A70B901A101CB010F03AF019200B603E30159
S1130A80CB00F802AD013A0205023801E302130279
S1130A906601CC01C102540262000203CD0280004F
S1130AA0B602FF01DD018D02EB008D02AA023201C4
S1130AB0BD018602AB02AA001C026B03B00028022F
S1130AC06D027E01DE021201DA013C033E01800167
S1130AD07102B80232015B0188034D018201BF0239
S1130AE05401D4029F0110017D03AD01180170026D
S1130AF0A402B501FD00250317020D01C40275010E
S1130B007702560284003D036D02B30057029C0233
S1130B1002020A017B02BB02FD007502CD01FB014A
S1130B20EB0271008202410391000102B802140237
S1130B305B01DA01F9025901F90126029B0128033C
S1130B40DD008C01D303E1006D01E7020C02B0016A
S1130B508501C302F10192014B027D010403980156
S1130B60B400E103A201C500FB021B02D5018F0101
S1130B7041027802790128029C01A502560246002E
S1130B805D039D025000C5025A02C201D801BF0193
S1130B90AA02C101D501CC014402D6025E0074024E
S1130BA07C034C003702BE029501250280016E02CF
S1130BB048028D01DC010D02FD02E0007B01ED0322
S1130BC0CF007201160382013D02A201E501C402B5
S1130BD08B01B0010602E0028901C800C803B30119
S1130BE0BD002A03AE010F020B025401EF02E9011A
S1130BF059011002AF0217028A002703A9026200FA
S1130C00DB021802B5017F020601A5028C020D0168
S1130C10FA0196026302BA004E02570389003902B0
S1130C2095026601BF022501FB012F030A01A701FA
S1130C30A102760225019301850326017E01E802C3
S1130C405401AA02A2013601820375012101B302F3
S1130C5077028B0131013503F601FA00E3028D01BD
S1130C6050024402AA0053033D029F009E029002D8
S1130C70C3012E019B02A402E2008202F401E401FA
S1130C80C5028E00A7021F0366003B02CF02CF01FC
S1130C9066010702EE023D01F30150029D01F602D6
S1130CA0E800BD01C403A9008F011903D3019D010C
S1130CB0B401C602D9017D016B029901D2028B01F4
S1130CC0E900E6036801CA003B03FA01AA01B60180
S1130CD0530267025D013502CB0181022F027600C7
S1130CE077036B023C00030359028901ED01DD0126
S1130CF0A302A501CC0101023B029B027E00A102DA
S1130D00570325006602D9025E012102A501730280
S1130D103102720109022302BB02E600B501DA03C3
S1130D209E008B0144035C012102C201F601B7025B
S1130D306601C9013702A70271010601CC038001D3
S1130D40BE005E03A101E4011E026F01ED02C101B8
S1130D5059014F028F02E201C00041037A024F00A1
S1130D600703250288017D022701AF026A02F5000C
S1130D70380297021D02DA007C0234036A0055022D
S1130D80B5024501A702420113021703E200D5018F
S1130D90C3022E022601CF017303FF008801100352
S1130DA049018302B2015901780344013701EE027B
S1130DB040026B016E013803CE01F30006039A0171
S1130DC025023F02D3005A030C029A00E202760283
S1130DD089016001B4028002D00098021302C401A8
S1130DE0A902B400C002F5024A007902D7028901BF
S1130DF07F013202D5022301F90176029201C70272
S1130E000001E601A7037C00BB01400392019701A6
S1130E10EA01BD02BD0174018D02A8019D028B018E
S1130E201E01DC033201DF007403CD018601E901F8
S1130E305D024D024B014902EF0156021402AD005E
S1130E408203340237004003490252011002F901BF
S1130E508F028E01CF01310226026702AA00C3026B
S1130E6028030B009B02E80224012A02CC016B0236
S1130E701802640136022B027A02FB00EB01B8036C
S1130E807400B00169032D010F02EC01FC01A10201
S1130E904C01E9015B02690266014701BF034D0190
S1130EA0CF008D038801BD013C028601DE02A10151
S1130EB0650185026402B801FF004D0346024C003F
S1130EC036032602590187024901AC024802EC00AC
S1130ED073028A02DB010801A302050354007A02AB
S1130EE0CB021D01990266011F02F902C700080224
S1130EF0D702E50137010A025203DD009F013103E5
S1130F0032016002CD01760163031D0158011D0306
S1130F1000025901B1012C03A301FB0029039A012A
S1130F20FA014602FB005203DE01A4001F034F0234
S1130F3058019C01C3025402C900B50227029E0154
S1130F409702E000CC02C7023D00B802D00245017E
S1130F50A5015902AF0210010A0296027E019F0206
S1130F602401060280035C00EF0158034C019F0139
S1130F702102A502A1017A01AE02AB016A029A0123
S1130F805001C30304010001A30396016E0123026F
S1130F905A022C0244016302080226020602E700F8
S1130FA07E03FE0142007A032C0221013E020D025F
S1130FB070027E01DC01580207023E02E000D80202
S1130FC0F1020100D402E702E8004002F3015502F5
S1130FD001026401600226023E021D011A028A0314
S1130FE05600DE018103F70009021A02F7018602A6
S1130FF03F010D02710229026B018801A2031F0146
S1131000ED00B60364019E0165029401C5028A01E4
S11310107B01B00231029A0144014B030E025700D6
S1131020640319022C019D0269019C022A02F10049
S1131030A8027102A2014201BE02CC024D00A50227
S1131040D402F10096028F011E02D802BB003B02BB
S1131050DC029E0156013F022403C200C1014A037F
S113106013014702F10189014403020180013D0398
S1131070BC015501F60112037A01100149038E01E6
S1131080D3015A0220013E03B801BB0053031E02E0
S11310903301E101C5022202D000D4022E027601FE
S11310A092020E01C9029A024000F302BB02080137
S11310B0D90178027E0207012502AB026201820295
S11310C04F011A0252034B00260260030701B501C7
S11310D05602800288018B01C902A2013D02B401BB
S11310E07A019D03E1002B01C403590163016102EC
S11310F04B0209024B017D021402F6010602200193
S11311006B03CC015C00AB030302FA007502180206
S113111049027901F1017302E20120021B01DF029D
S1131120B70206000B03D802B100630216023402B0
S1131130F0016F01840216020A024B013D025203C0
S1131140450012028B03BE000F024B02E5016B0245
S11311503F012F027902EC017D01C3017803F900FC
S11311601701D3033701890195029901A6027F0172
S11311709601CE02FA018C018B013903D801720069
S11311808D03FF010601BF028301810213020001E6
S1131190D3024D0275018301CB028E025400D202A8
S11311A0CF02C500A002B7011102B802BC006B0255
S11311B0D3025D0182016B02E902B300EC01560324
S11311C0ED0039021B0290012103F400AB014E0330
S11311D0780161013902E9025601330161037701A3
S11311E0B30177023D011F039B01DB007903E50195
S11311F01C012902B802EE01E500F30229024F01A5
S11312009A023B01B8027002510026039902D500EC
S113121017028B0245020B014502B402410171021F
S11312207E01200221034A005D025A03C600D9014F
S113123085024F027801A801DC0290011802D8014E
S11312409A016F03CB005D01D60319016601A00268
S11312502E02E7015F0195021302C9011202550132
S11312604A03A3018300D103D101DF00B3021702B3
S11312701C02800109028202BB0110025801D7023C
S11312807E021B003D03BB02810091023002080272
S1131290E70184019D02FE01E1018001540214036F
S11312A0440049028603870023027802C7015302DF
S11312B04D014D027502B5019C01F6014203E000A7
S11312C04B01E20305018201C802910183028101FD
S11312D0B301DD02C3018B01CF011803A7019B00F9
S11312E0AD03DA01E900E90294015D020702180185
S11312F0F20223025501C901CA024E026A00FD022C
S1131300BC029D00B602DB01F7019D02CB009202F4
S1131310BD022701B8018C02A702B2001C025503CA
S1131320C600370246028A01FB02F500D5015103CB
S113133038017B017402B3023B0160016F03580161
S11313409D019C025001F8028B0102019103AA0144
S1131350140172029C02BD0108010D0317022F0142
S1131360AC0261019C024F026E004D036E02AF009D
S11313705B02910207021C016602B00221016C02A9
S1131380AD011902F20257008E0244038D000902D6
S1131390AB0213027201CC01E4027801FF010102E5
S11313A0AE013B03C4009201D903DA007801DB02E9
S11313B00302C9018001A6020702A40129028101D6
S11313C01F038401B300E9039901D300F402080266
S11313D0EF0195012102830295010D029201C102E0
S11313E04B023E00660393025D00C7023F02D50133
S11313F0EA019F01A902E101C501B9015C02D4021D
S113140053007D02710355004402A0029E01410273
S11314106501620267028901C4011D020303D4004D
S11314208401E203D1008801FB027C016102900186
S1131430CE01DF02910198010E02EA028001CF0081
S1131440C103AE01D8001803990134020702350123
S11314500303F70144011002BA02110290002203AF
S11314609C027D00D602F701D4018A02E400AF0297
S11314709F02FD00F5019F026002C0004D0244037B
S1131480A00042026F027901D9020401FA01450366
S11314900001A001A60273022C019601700334011D
S11314A09401C4025601CE0288012A0199037001F5
S11314B01B01B7027202920138011E03FA011801DE
S11314C0C7027F0177023702940067033D02990047
S11314D0A2028802CA013B0186029E020401730231
S11314E0D9010602C7027200B70223036000410259
S11314F0C402D1017901F501DE025D01F2012D0280
S1131500B5010503CB00C501CC03A20098010E036D
S1131510CE01B501AA01AE02F3018A014702A3017B
S1131520EB027301E800F1035F01D6003303EC0121
S1131530C301B6013502780274011602C6019F0286
S113154020026E00830361024600030342029F01EE
S1131550FA01BC01A902C301B701F10156029602C6
S11315607000AC024E032D006F02BD026B013A0203
S113157086016D0251026801F2013702C002D700F0
S1131580BE01D303A0009D0129035B014302AB010B
S1131590E301D5026601B0014202B20265010C0109
S11315A0C6037C01D60049039201090213025201C9
S11315B00603CC01420152029B02DA01C3003D033F
S11315C071026800FE020902AA0182020301C0023C
S11315D07C02E2003502A2021902DD007B0226032E
S11315E08000580292025D01BC021E0117022F0303
S11315F0D300CF01CB022C022B01CF0162030F01D8
S11316009801EB025101A4029301510193033B01A0
S11316102F01F4023C02710172012403D6010D0171
S1131620E70291014C022C02BF00730309029100EE
S1131630E702700290016901A0028002EE008402B8
S1131640FC01E901A5029700D402F90240007F02DF
S1131650CE028D018E011F02CB024301F20156021C
S1131660AF01D302E100F201B1037200C3013603FA
S11316708F01AC01DC01A902D9017B016A02B80126
S1131680B50270012001E9032801E8006D03C201DD
S11316909F01E401410263025D012802F00173022B
S11316A00102A50091032B023F003F0336026A01A9
S11316B01602D8019B02A801B501250243025F026C
S11316C09C00D10220031100A202CF0234013E0289
S11316D0AB016B0238025401220243027C02EA008D
S11316E0F501B4037600BE014F0331012E02D0018F
S11316F0EF01C2024601D1016B02720258014D0191
S1131700BC034A01E20078037E01E2012C026C0171
S1131710FC02A6014C018D027102AD0101014C03D2
S11317203F0261002A030F027D0186022601C202E4
S11317305702D50074029702D6010901A202FA02E7
S113174069007902AB023801A802400129021103A1
S1131750B4000302E202E201390109024503EE008A
S1131760A9010E0340017E02AA0172017F03100148
S113177050012503FE015D01B3011C03AF010F01FC
S11317800903980120022E02EA006F03D801990090
S113179027034B025E01A201B0025802E4009D023D
S11317A01602C4018E02C400E402CA023100BF0260
S11317B0CA024901B1014602AA022E01FE017A02BF
S11317C09E01A602030116028A034F00F60151038B
S11317D04C01B10111029702BE017A018C02C001D1
S11317E07E027B015401D203F80007019D038F019F
S11317F08501190243024602500141020F024202CE
S1131800EF01E1009003F401480079031C0239015F
S11318103F02EF0182029401BF015202250231020C
S1131820D100E902EA020400D902D202FB004F020D
S1131830D2015B021F024E01500241023C020B0125
S1131840260287035600E9016A03FF002302FC0114
S1131850F001A9023301F5018502310259018E011B
S1131860A2031C01FC00A1035F01C00150027F011F
S1131870E7028A016001BC023D028D0145014C036F
S11318800902690056030702500196024801B80292
S11318903502D600AD027F029A014101BE02C502A3
S11318A05F00A002B9020F01A00268012F02EE023C
S11318B0A3003902E9029A0156013E021A03D30039
S11318C0C7012A0325016002CB018B016203F000EA
S11318D078014903BA015801F601050387011F0184
S11318E029039101F6013D0213015E03AE01AF002D
S11318F05D031B023701E401B4022A02E600BA02C6
S113190023029C018402F400E6029A023100FC02E4
S1131910B7020C01E20165027E0222011402940264
S1131920840183022E012E025B033B002E025C0322
S11319300701C40145027702A6018501AB02BC017F
S11319404D0293018301AE03D2003101C10353015F
S1131950770155023802240251015C02210210026F
S1131960EA011D017F03C0016000AB03F601100111
S11319707202FC015F028A01D101730200020F02AC
S11319800E01F302B00206001003C602C4006C028A
S1131990F50140020B0255017802340204023801B9
S11319A04C02500343001B027703C90025022A029C
S11319B0E4018D022E011B029202F0016A01CB01A7
S11319C07A03F6002401C0033601A9017B028801D1
S11319D0CA0279017B01DF0205027C018D013C030F
S11319E0D30180007E03F2012901B2026501A10244
S11319F01A02E400DC025C026A018201CE0289025E
S1131A006300CB02B802E400A40291012702CB02D6
S1131A10A1006C02E202570180016C02E302C200E1
S1131A20ED013A0303014C02F30198013E03DD008A
S1131A30A5015D03740161013802E00263013C0108
S1131A4043038001D2015602350141038C01CF00CA
S1131A508603E3011E012B02AA02F801F600D80254
S1131A602402750185022401D9026D02400031036C
S1131A709602D7001C027A02490222013002A30214
S1131A8065016C025E013A022903360066025703BF
S1131A90C600E50174024B0293019C01C202AD0130
S1131AA02302B501A7018003B8006301D603140122
S1131AB078019202200203025F0175022502E0010F
S1131AC0F3015501600394018500D303C701F300BA
S1131AD0AD02FF0136028B01E8018802D701FA0149
S1131AE04D01EE02760219004203AC029400960204
S1131AF011021902FE01660197021C02D6016D0152
S1131B00660212033F005102750393003502570227
S1131B10CC01730236013C029102B5018701010236
S1131B204503DA005501D20307019D01AC02860189
S1131B30A80274019A01F302CB017801D4011D03B8
S1131B40A201A6009F03D2010901D7027A018102F2
S1131B500802FA00000331024701C901CF024A0218
S1131B607600F502AA02BC00B402B7011302AC026B
S1131B70AC009802CE021D01B6018E02A202BE0084
S1131B801A023C03DE0045021E0298011603D90026
S1131B90D2016203320179017502AD024701650188
S1131BA054036601B80178024D011B037701F60066
S1131BB0A203A601130173029102C8011401F202E7
S1131BC01802520192024F01C00246025B005C03FC
S1131BD06C02B0005F0282020F022F015002A402C5
S1131BE0440161028F013702F60241009A02440364
S1131BF08C0012029A0214028B01BC01CE029701DE
S1131C000302DE01C0014B03AD009801DB03D600E3
S1131C108701CC02FA01E60179018A021E02B601AB
S1131C200702860136037201B400ED039001E4005B
S1131C30EB02F4010A029A0100029002AF01F301DF
S1131C408A01DA0240023A006D0386026E00C8027D
S1131C502302EB01FC017E01AA02FF01B501A801E8
S1131C607102D1024B0085026303610051027F02BD
S1131C70A8015E024901570285028301AF012C02CB
S1131C800603CC008C01D503D6009F01DD02770149
S1131C9085027D01B801FA02950183011402F00264
S1131CA07901D700B303A801F500010384015702A9
S1131CB0FF0116011303FF0131010D02BB020802EB
S1131CC09700130389029900C802D201EF018D0223
S1131CD0C000B202A802ED00ED019A025402C7004E
S1131CE040022503B60040023F028601E402E00000
S1131CF0F2014903F20095019B02620230018E0158
S1131D0046033E01A0018F025201DE0267011A015F
S1131D10960361011101A7025A0292013601F002F1
S1131D20F2012E0196026701890219027D005F0308
S1131D30280291008F026702C3013F015902820207
S1131D401C014D02AE011402AE025600AC020603A1
S1131D50590032029A02C3017E01CF01B2026E0120
S1131D60DC01F501B901F102AA00B901A50395004E
S1131D709101DD02B401BB018B017602F501820100
S1131D800A029801DD024C01DE00C5034601D900B8
S1131D900003C301C7019E01FA0168027501DD0158
S1131DA0AA019302F5016300590335025000D502DC
S1131DB009029E01E70182018702C3018901C6016C
S1131DC048026902610089020F033500500274025F
S1131DD062012C024F013F0247024601BE0122026A
S1131DE09202BF00A70185039A009101D502440124
S1131DF03A027601B001BD024C017C012102850248
S1131E004201FE0075035E01DD00F4026601050275
S1131E10DF011E01E002AF01150126026D02AF01D0
S1131E20B900F30236027900B402C401A7015002DA
S1131E30CE0093025402BE0004026E02E701D000F9
S1131E403E02D1028B002502360254018E02E300C9
S1131E50EC01F702B400A1018D02F5011601A20103
S1131E60FE0207017F0182023901800251012B0128
S1131E704E0314010E01AC02FF0156015001BF02D2
S1131E80B00108017F0262013202E2019B002B03D0
S1131E90CF017E009C0226026E014B0143023C02EC
S1131EA0F1002B02B201D401570270009502A60280
S1131EB034003E02730265017101CF0171023B01DE
S1131EC0B201F60196018802AE00C20147035E002A
S1131ED09601C9025E018F0195014602BA015201C1
S1131EE00002900173022C01FF007603FC00D50070
S1131EF0F70280018301A101E0012A023F01C6012A
S1131F00B2013A02AF018B002503DB014100D0028C
S1131F10D9015101D5017D014E0286016501D3012C
S1131F200C0206027D007802AB0217004A0254023A
S1131F301901FF015301150203021701C60104022E
S1131F402302BE00B501260369008A01BD020A010D
S1131F50F80174019C01770211017A011C021C0230
S1131F601B01200128031901D200DF023D01B90140
S1131F70C9012001A102690106012F0219026501AC
S1131F80DC00C402E10166009F02A90160011F0296
S1131F90DB0066020302A100110235028701E200A0
S1131FA0310276026C00100220021E014502EC0090
S1131FB0D801A0028700AC016D0290010A01AF01B3
S1131FC0AB02D6006A016C021601290245013101F7
S1131FD0FB02D60012019F02A201280167018102BF
S1131FE06F01F00065024F01DF01B801B400E9029E
S1131FF07F0178009B02DC0127015B012202F001D2
S1132000D1000F02A80191010F028C006F02470258
S1132010200042023D0212016B01C70128020F0198
S11320209301EC016A012A02B900BD01E302380000
S11320309D01A5020D016F019B010B0281012F017E
S1132040F301790110021A0116011C03BE00DB0022
S1132050DF0239014C01A501BC01E7011601B201FF
S1132060AB01E3017901B000E20287014100C00243
S1132070A0010E01CA0170010D0251014B01D301EF
S1132080C901B3019D005802480209004202270217
S1132090D600DD015301E101C301F600C601D901F7
S11320A0C001C600B701C002460087019802CF00F4
S11320B0C10173017E012E02E60077010602B90117
S11320C002013B01D102DD00D100BF020E01780103
S11320D0B901190159023001FE002702C3012B0185
S11320E0FE0088028F016100850282012001F70150
S11320F0E3002C02BA0192001102F2013601F7004A
S1132100170219025900FD01FE01E7000702F5005C
S1132110B7014A026B00B0013E0235010601B1016C
S11321205202AF005C014C02ED00DE013F012D01C3
S1132130A202A800180180024A01070179013A02AB
S11321403201E2004702310193019801C5009C026B
S11321503A017C008A028F01EE006B01F601A401B2
S1132160BC00F40190014F01D301A4003B02ED0136
S11321701C003C02FD01CB006C01B601D901EB004F
S11321807B01D7013801DB01C800AA017E022100CE
S1132190A0017102C30059019B01C9014B0118013F
S11321A0DE015701B9010F012101BA028F00E400D9
S11321B0B702F3002201A7018F01A401F8009E01D8
S11321C0950190015101CD0094023C014A00A40202
S11321D06101D700C1015A01C70127013801C401B7
S11321E084016F01BA002902E80108003302EE01FC
S11321F09C00C2014D01A5018801E000BC01A501BC
S11322006B01D300AB0158023100850165029800CF
S1132210950170015701E501C9007001E0016001F9
S1132220F40049017202AD00D6009302DB004101C3
S1132230AB0108010E020301F9000E027001000156
S1132240180142024401650063025301E800D7010A
S1132250E400EA0179018C000302AA01F5000C01F3
S1132260F001BE015100E701D101B400D401FA002C
S11322708C01F8015C00AC010302E8000901A7012C
S1132280F501910051012002C2009F013A011C0195
S1132290480288001C015202FA00F2008101EC019C
S11322A0FC00DD0021020B0151017E01CC0048023B
S11322B00201850068024201C4007601C0015C018C
S11322C0B100D6016D011301A201B600FD019C010C
S11322D021002902B70194006D0199018A01D100FE
S11322E06601B60105019801D4008A011C02190097
S11322F09C01320284004901910181011D01070101
S1132300C0012E016E010A011F0155026E00EE008C
S11323108002B3000301A3015A016501E4008601B0
S1132320730146013201DF003E02FE0059007B02C8
S11323302001AD00B6013A01800106012601A70182
S113234042013901D100EF01900111001A02AD01DF
S11323506D00AB013E0165015501D200A5016C0180
S11323602601DF009101F30128007E0126026700A7
S1132370720166012801A201B5006101B0011401D6
S1132380EC004A0110028800DD005B02A90016017E
S11323909B01EF00C201E100F300E6012401E20029
S11323A02701F30104016F0038021E01BB00B901CB
S11323B0DC00A50143018A00E6016201C3001B01A0
S11323C0BD0168015200CC019A018900A801F800FE
S11323D05801AD0157009C01C101AA000C019001F4
S11323E09A017E004601EB0198006A013201020164
S11323F0F00174001B011702B600E5007C019A018C
S1132400D000DA00F101E1001A016701C800F3010C
S1132410D6008F003702FB00A700780182011A0161
S1132420AC00B2014201DE007A01BE00B8015601DF
S11324302D0008026E016B006B0172013E01BF00AA
S11324404F018A01D5006101DB006001C1011B005D
S11324508E01E90153003E017B013901F700FA00C6
S1132460980101012F0104011001F3015A00F20047
S11324703D027B00ED00950120012B01D60068018F
S1132480480106011A01E500E601CC006A00430296
S1132490E1008F00A70113013D01ED0013017F014D
S11324A004010F01DE00AD0143012100F5016801C3
S11324B04A009501250124012901C6008301310147
S11324C0EF00E8006B01950129006F01DF01400076
S11324D054015401F4006401A8004A017901D500B3
S11324E0E7003D01B1017000E10018027B00F40037
S11324F08501CE007A01C900E900B301E100CC00F6
S11325002A01A101CE007C000202E80098009B0190
S1132510CB005F0116018A00BB011E019F0022014E
S113252082011C015900A9015D0166008101EE00D0
S113253021016A01580080017B017B000D016C01BF
S1132540440173003701AC0173003E012401E00033
S11325509F0169001101D3017F00DC006A01490178
S1132560AD00D800B901B700ED004F01BA009F01DA
S1132570B5009500FA01BC0094006F014001E10030
S1132580AB0087011101B3005501BB0070011A01B2
S11325903B00D90127014F0062014301F900B30058
S11325A035015701AA003301DA002E016F0123001F
S11325B075019D012F0031015A01F300D800EC0090
S11325C06801D400FC00FB00F70097014F00F00005
S11325D0F1014E00DC007C01E500FA00CB00420171
S11325E01801D2000401DD008E01A600770000026C
S11325F0A8007C008F01E600FF00DA00FB004E011A
S1132600CF00ED00DF00660101013300C5012301A5
S113261033007B010401E7000501BA005701F9000A
S1132620C400E8003C01400130005701920123003E
S113263039013801C1002E019F002A013E01A40086
S1132640E000240157016000DF00CD015400D900EF
S11326506801A9003801B600D8007801AB00BB00BE
S11326601E015001A4008600C201B4007F0079015C
S1132670B2001D01F00087008601E10086001C0104
S11326804101DB0062007E011E014C005C01DA00A6
S1132690E90030015A00590136015A0007013F018F
S11326A0F7006F0021016801540018010F01B900FF
S11326B055016400FD0089015600D3004B01FC0064
S11326C09200D2007A018F00C8003301A3005101A7
S11326D09D009500B401870087005801FE00B200F8
S11326E0AA005601DF0090003101AF002A01E90081
S11326F047009F01E5003E004F010D01BC00AA0008
S113270015011E0186000B01CF00F80028012E00E0
S113271050015001190020013001B500BF00DB0059
S11327203201AA00D300EB00D50043014B00E300C3
S11327309F012C00CD005801AC00CF00BF00160152
S1132740E700A800ED00CB003B0189007F00B40145
S113275078006F006D01B700CA00C800DE001801E0
S1132760A200D000D5002001CB0043008A01E20082
S113277026005B01DC00AF00E500AA002401C700CD
S1132780A200DE000701F700390034014501110001
S11327901C0112019000FE009400010104017F005D
S11327A0D300FF0006015700D4007D013600C200AB
S11327B042018200FD00A500C00039017F00AC0089
S11327C00601030183008B007B0186006D0051012B
S11327D09300E000D0007F004901AB0073000A01C0
S11327E0FF00A6006A004901E0003B003401BE007E
S11327F0B400FD005A002801F5004400F8000A0165
S1132800B5006C00030122013D00F400F1009100C9
S113281013016000E0003F013900C6002101B80047
S11328207F00C50036016C00AA0010018700090171
S113283089008D0068015E007D003501BE008C00BA
S1132840A4001E01AE0075000C019900E800C00050
S11328504D005D01AC0035003101D5008B00A000B6
S1132860EF00E4006900E500BA00C300EA003700A5
S1132870210106010D000701FD007F00A900C4002D
S1132880F7008500AF00D300AE00FA004900CD0088
S11328904C011600BC0029017900AC00B000E40032
S11328A0B7008600D200AF00F00074007E00630120
S11328B051006500400188009D00B500BB00E000A8
S11328C07E00B400BF00DC009F004D004701A8005B
S11328D021003201B0008000C8009500EC009A008D
S11328E08600CA00D000B90041000801FA000700C0
S11328F0FB00E5006500D3008600D300CC00630034
S1132900BF00D300C0005200C0002C012100AB0066
S113291012015D00C9009400A200F9005E009A0053
S1132920E200BD006B00880030015F005F00210100
S11329307100AB00B200700009017F006400EB007D
S1132940C0007C006C000E01A700300008019C0050
S11329508500CF005500F100BB003600DE00D10039
S113296080006800DC00DD002C00D000CA006A0092
S1132970D9005900BB00F7002600B200EE007E002B
S11329806E00B000F0004F008F00E6006800CB003E
S113299077007C001A013F007100060185006E007B
S11329A09800E20081006000E1007D00AD009C0021
S11329B04D0015017B00300006019E00630092006B
S11329C0C200AC005200BF009D009100B5003B0066
S11329D0EB00C3000900E500C70053009300A60004
S11329E0BC0065009000B3008500BA004600AD004D
S11329F0FB000A00A600F1004D008C009A00B00014
S1132A008A006A00B1008D00AE00610073001101FC
S1132A1034005B0009015D0077009E009400AA0069
S1132A20600096009F009F007A004E00000176002F
S1132A301F00000182005A00A9007B00B30074004B
S1132A406D00AB00990086004400D400B500050079
S1132A50D300B3004100AB007300A10099004D0006
S1132A60A300A30085004B00A100DD001400920028
S1132A70DB003C009B007E007E00BB004500830021
S1132A80B500810056007A00E30040005200E900DE
S1132A9050007D0093005C00C7005B005400C1003F
S1132AA086005A006500CE0074002900D600760026
S1132AB05C00A4004A00B70087002C00B90099000C
S1132AC055005F00AE009C002200A9009E00480053
S1132AD0A5004F009000B4001B009600B600500003
S1132AE05D009200AC0037007400B500490093000B
S1132AF063006400CE002A006100CD00550055003B
S1132B008200A5005A004D00B1005E0079007A00F1
S1132B104400CC0054002C00D1006B0044007D0024
S1132B20920078003F009600790064008600380027
S1132B30AF0087000900B9008F0033007A008100DC
S1132B4083004A0070008C005D0084003F00850013
S1132B50B00005008800B4002C006E007C007B00EF
S1132B60620051008A00670076004E005E00C000DB
S1132B7020004D00C9003800570080006A0077002B
S1132B804700740078006A005A004600B6004D0001
S1132B901D00C40057003B0086005C007C0053000D
S1132BA05400840067005C003E009A007800060030
S1132BB0A3007F0026008200590070006B003900DA
S1132BC07E007200560040007A0094000D007200EE
S1132BD09F002200710063005900810031006500EC
S1132BE08300500042006200990028004200AA00BD
S1132BF0320056007100430088003E0042008F00FE
S1132C0054003E0055008D004A0022009D005000F3
S1132C103B0078003A007C005A0022008A006400DD
S1132C2035004F007B0063001A007C006E002B000F
S1132C3073003E0063007700130071007B002D00D9
S1132C4049006B006D00250056007F002D006200D6
S1132C504B00470087001B004B008F002F003D00F6
S1132C6063006A00390039007C003D004D005700C4
S1132C70340085003400240093003F002C005F00E2
S1132C8060004A002D00690052003D005B002D00E9
S1132C90730054000A00820059001B005A005800B7
S1132CA0500032004E005F003900540031005900DA
S1132CB06C0004006100740015004D0057004B00C7
S1132CC03E0038005D0041004700390042007600B4
S1132CD01300390084001C0039005A0041004900E7
S1132CE030004E004E003D003C0034006F002C00CC
S1132CF018008100310023005C003A004A003400CF
S1132D00380055003B00380030005F0044000700E5
S1132D106B004B00130056003A00410041002600AE
S1132D205200430030002F004D00530009004C00B6
S1132D3060000F004700410033004B001F004100BA
S1132D404E002A002C004000560016002D0067009B
S1132D5019003200480028004D0024002B005600C2
S1132D602B00250039004F00270018005E002B00BF
S1132D7020004A00240044003200170053003500AC
S1132D801C0034004500330011004A003D001500CA
S1132D9043002700360040000C00430042001400AA
S1132DA02E003E00370015003300460016003500A3
S1132DB02D00270046000F002D004D0014002400B4
S1132DC03A0034001D00220043001E002700310099
S1132DD01D0042001A0016004E001C0017003700A8
S1132DE02F0023001A00380029001C002F001A00AD
S1132DF0380027000800440029000C0032002C0091
S1132E0024001A0028002F001A0028001C002B00A0
S1132E103100030032003600060028002B00200099
S1132E201D001C002D001D001F001D00200032008D
S1132E3008001E003C0009001B002C001B001F00A2
S1132E4017002400220018001C0019002D00110096
S1132E500D00380012000E002A0018001D00170093
S1132E60190024001600170017002500190005009A
S1132E702D001C0006002400170017001900100084
S1132E8020001800110014001D001C0004001E0086
S1132E90220004001B00190011001A000C00180085
S1132EA01A000D00110017001A000700110022007B
S1132EB00700100019000C0017000C000E001A0087
S1132EC00B000C00130016000A0009001B000B0085
S1132ED0080016000A0012000D00070016000C007E
S1132EE007000F0011000B00050013000E00040082
S1132EF0100009000B000E0003000F000D0003007A
S1132F000B000D000A0004000A000D0003000A0073
S1132F10080006000B00030008000C000200060075
S1132F200900060004000500080003000400060070
S1132F300300060002000200070002000200040071
S1132F40030002000200030002000100020001006D
S1132F5001000100000001000000000011241FBE58
S1132F60CFEFD8E0DEBFCDBF11E0A0E0B1E0E0E2FA
S1132F70FFE302C005900D92AA31B107D9F721E011
S1132F80AAE1B1E001C01D92A934B207E1F70E94A1
S1132F90B0180C948E1F0C9400001F920F920FB661
S1132FA00F9211248F939F93F89480911B01909119
S1132FB01C0190931E0180931D01809186009091C5
S1132FC0870090931C0180931B0178949F918F91AB
S1132FD00F900FBE0F901F9018951F920F920FB66F
S1132FE00F9211242F933F934F935F936F937F938B
S1132FF08F939F93AF93BF93EF93FF9340914701B8
S1133000509148014F5F5F4F9A0136952795369549
S1133010279536952795A5ECB0E20E947D1C9295E4
S113302082958F7089279F70892768EE73E0869F49
S11330309001879F300D969F300D1124CA01821B89
S1133040930B9093480180934701892B29F4EAE775
S1133050F0E0808180648083FF91EF91BF91AF9114
S11330609F918F917F916F915F914F913F912F919C
S11330700F900FBE0F901F9018959FEF97B9982F40
S113308092959F70906A8F70806A98B9EFE9FFE01B
S11330903197F1F700C0000098B1905898B9EFE962
S11330A0FFE03197F1F700C0000088B98FE99FE095
S11330B00197F1F700C0000088B1805888B9EFE9A2
S11330C0FFE03197F1F700C000000895CF93DF933C
S11330D0EC018881882331F021960E943D18899162
S11330E08111FBCFDF91CF9108959FEF97B9982F6E
S11330F092959F70906898B9EFE9FFE03197F1F7E6
S113310000C0000098B1905898B9EFE9FFE03197FA
S1133110F1F700C000008F70806888B98FE99FE0E4
S11331200197F1F700C0000088B1805888B9EFE931
S1133130FFE03197F1F700C0000008958FEF87B9E1
S113314083E30E94751882E30E9475188CE20E9442
S113315075188CE00E94751881E00E947518089516
S1133160E1E6F0E080E88083808180788083579A6C
S113317084B1806B84B92C9A8DB581608DBD8CB57A
S113318080658CBD84B5826084BD85B5836085BD52
S11331908DE787BDEEE6F0E08081826080837894DD
S11331A080911A01813029F0000080911A01813048
S11331B0D9F7F89415BC0E949E18ECE7F0E08081E2
S11331C080688083EAE7F0E080818F6C8083A1E8E7
S11331D0B0E08C9182648C93AFE6B0E08C91816214
S11331E08C9380B78F7780BF80B7846080BFAFE750
S11331F0B0E08C9183608C93808180648083789428
S113320000E011E06894AA24A4F8C5E2D1E0E090BB
S11332101B01F0901C0180911D0190911E01B701CA
S1133220681B790B80E090E00E94451B2DEB37E38F
S113323046E855E30E94D31B962EB72EC82ED92EEE
S1133240982F492D5B2D692F7D2D40931F0150939D
S113325020016093210170932201F0921E01E092FB
S11332601D01609123017091240180E090E00E948F
S1133270451B2B013C01292D3B2D4C2D5D2D60E080
S113328070E080E89FE30E94B11A20E030E048EC4F
S113329052E40E94D31B9B01AC01C301B2010E9402
S11332A04D1A20E030E040E05FE30E94D31B0E940F
S11332B0191B60932301709324017F936F931F93D1
S11332C00F931F92AF92DF93CF930E94891C80E8E3
S11332D00E947518CE010E94661880EC0E94751831
S11332E085E391E00E9466188DB79EB708960FB6E5
S11332F0F8949EBF0FBE8DBF8ACF20917800309185
S11333007900822F932F08951F920F920FB60F9278
S11333101124EF92FF920F931F932F933F934F9398
S11333205F936F937F938F939F93AF93BF93CF9349
S1133330DF93EF93FF93F8940E947D19BC0180E022
S113334090E00E94451B20E030E040E151E40E94FF
S1133350D31B20E030EC4FE754E40E94B11AE62E70
S1133360F72E082F192F802F912F0E94191BEB0184
S113337080E090E00E94451B9B01AC016E2D7F2DE7
S1133380802F912F0E944C1A20E030E04AE754E449
S11333900E94D31B0E94361C0E94191B7F936F93BB
S11333A0DF93CF9388E091E09F938F9385E391E03F
S11333B09F938F930E94B91C78948DB79EB70896FB
S11333C00FB6F8949EBF0FBE8DBFFF91EF91DF91B2
S11333D0CF91BF91AF919F918F917F916F915F91A9
S11333E04F913F912F911F910F91FF90EF900F906C
S11333F00FBE0F901F9018952C98880F991F880F57
S1133400991F90699EBD0DB407FEFDCF8EBD0DB40E
S113341007FEFDCF2C9A08951F920F920FB60F92BC
S113342011242F933F934F935F936F937F938F93C5
S11334309F93AF93BF93EF93FF938BB180588BB956
S11334402091450130914601F901EE0FFF1FE45828
S1133450FF4F2F5F3F4F3093460120934501459125
S11334605491842F952F2037374118F021E0209371
S11334701A010E94FC19FF91EF91BF91AF919F91A6
S11334808F917F916F915F914F913F912F910F9009
S11334900FBE0F901F9018955058BB27AA270ED027
S11334A048C139D130F03ED120F031F49F3F11F4BE
S11334B01EF42EC10EF4E095E7FB24C1E92F4AD196
S11334C080F3BA17620773078407950718F071F43D
S11334D09EF562C10EF4E0950B2EBA2FA02D0B01C0
S11334E0B90190010C01CA01A0011124FF27591B45
S11334F099F0593F50F4503E68F11A16F040A22F4B
S1133500232F342F4427585FF3CF469537952795BB
S1133510A795F0405395C9F77EF41F16BA0B620BBA
S1133520730B840BBAF09150A1F0FF0FBB1F661F01
S1133530771F881FC2F70EC0BA0F621F731F841F44
S113354048F4879577956795B795F7959E3F08F06A
S1133550B3CF9395880F08F09927EE0F9795879529
S113356008950CD0E6C0DED040F0D5D030F021F480
S11335705F3F19F0C7C0511110C1CAC0EBD098F316
S11335809923C9F35523B1F3951B550BBB27AA27E0
S113359062177307840738F09F5F5F4F220F331F52
S11335A0441FAA1FA9F333D00E2E3AF0E0E830D01E
S11335B091505040E695001CCAF729D0FE2F27D021
S11335C0660F771F881FBB1F261737074807AB07EF
S11335D0B0E809F0BB0B802DBF01FF2793585F4F64
S11335E02AF09E3F510568F08DC0D7C05F3FECF3D1
S11335F0983EDCF3869577956795B795F7959F5F29
S1133600C9F7880F911D9695879597F90895E1E07C
S1133610660F771F881FBB1F621773078407BA07DB
S113362020F0621B730B840BBA0BEE1F88F7E09536
S1133630089598D088F09F5790F0B92F9927B751E3
S1133640A0F0D1F0660F771F881F991F1AF0BA9562
S1133650C9F712C0B13081F09FD0B1E008959CC089
S1133660672F782F8827B85F39F0B93FCCF3869558
S113367077956795B395D9F73EF4909580957095B5
S113368061957F4F8F4F9F4F0895E89409C097FB32
S11336903EF490958095709561957F4F8F4F9F4F25
S11336A09923A9F0F92F96E9BB279395F695879569
S11336B077956795B795F111F8CFFAF4BB0F11F42C
S11336C060FF1BC06F5F7F4F8F4F9F4F16C08823D3
S11336D011F096E911C0772321F09EE8872F762F09
S11336E005C0662371F096E8862F70E060E02AF04A
S11336F09A95660F771F881FDAF7880F9695879536
S113370097F9089597F99F6780E870E060E008955D
S11337109FEF80EC089500240A94161617061806E5
S11337200906089500240A941216130614060506C1
S11337300895092E0394000C11F4882352F0BB0F52
S113374040F4BF2B11F460FF04C06F5F7F4F8F4FB5
S11337509F4F089557FD9058440F551F59F05F3FF0
S113376071F04795880F97FB991F61F09F3F79F09F
S113377087950895121613061406551FF2CF469521
S1133780F1DF08C0161617061806991FF1CF8695A3
S11337907105610508940895E894BB276627772787
S11337A0CB0197F908950BD0C4CFB5DF28F0BADF69
S11337B018F0952309F0A6CFABCF1124EECFCADFC2
S11337C0A0F3959FD1F3950F50E0551F629FF00130
S11337D0729FBB27F00DB11D639FAA27F00DB11D89
S11337E0AA1F649F6627B00DA11D661F829F222712
S11337F0B00DA11D621F739FB00DA11D621F839F99
S1133800A00D611D221F749F3327A00D611D231F6E
S1133810849F600D211D822F762F6A2F11249F57BC
S113382050408AF0E1F088234AF0EE0FFF1FBB1FDF
S1133830661F771F881F91505040A9F79E3F51057E
S113384070F060CFAACF5F3FECF3983EDCF386952F
S113385077956795B795F795E7959F5FC1F7FE2B29
S1133860880F911D9695879597F908952FD020F08C
S11338709F3708F492CF01C01BC0882371F47723CB
S113388021F09850872B762F07C0662311F49927CF
S11338900DC09051862B70E060E02AF09A95660F77
S11338A0771F881FDAF7880F9695879597F90895FB
S11338B09F3F31F0915020F4879577956795B795A0
S11338C0880F911D9695879597F908954BDFA0F081
S11338D0BEE7B91788F4BB279F3860F41616B11DEC
S11338E0672F782F8827985FF7CF86957795679508
S11338F0B11D93959639C8F30895A29FB001B39F63
S1133900C001A39F01D0B29F700D811D1124911D90
S11339100895AEE0B0E0EFE8FCE10C94651F0D897A
S11339201E898F89988D26E02C831A83098397FF3B
S113393002C080E090E801979E838D83CE014B9670
S1133940AC01698D7A8DCE0101960E94DB1C4D81FC
S11339505E8157FD0AC02F813885421753070CF446
S11339609A01F801E20FF31F10822E96E4E00C9402
S1133970811FAEE0B0E0EFEBFCE10C94651F0D8914
S11339801E8986E08C831A8309838FEF9FE79E83C9
S11339908D83CE014996AC016F89788DCE01019655
S11339A00E94DB1CEF81F885E00FF11F10822E9638
S11339B0E4E00C94811FACE0B0E0E1EEFCE10C9497
S11339C0571F7C016B018A01FC01178216828381D7
S11339D081FFC6C188248394912C8C0E9D1EF7010F
S11339E09381F60193FD859193FF81916F01882363
S11339F009F4B2C1853239F493FD859193FF819125
S1133A006F01853229F4B70190E00E94CD1EE7CF03
S1133A10512C312C20E02032A8F48B3261F028F4B0
S1133A20803251F0833271F40BC08D3239F080331F
S1133A3049F4216028C02260246025C0286023C086
S1133A40206121C027FD27C0382F30533A3078F445
S1133A5026FF06C0FAE05F9E300D1124532E13C0DA
S1133A608AE0389E300D1124332E20620CC08E3231
S1133A7021F426FD71C1206406C08C3611F420683F
S1133A8002C0883641F4F60193FD859193FF81913C
S1133A906F018111C0CF982F9554933018F0905234
S1133AA0933028F40C5F1F4FFFE3F9830DC0833676
S1133AB031F0833771F0833509F05EC023C0F8011B
S1133AC0808189830E5F1F4F44244394512C5401F9
S1133AD015C03801F2E06F0E711CF801A080B180AE
S1133AE026FF03C0652D70E002C06FEF7FEFC501B4
S1133AF02C870E94C21E2C0183012C856FE7262E81
S1133B00222218C03801F2E06F0E711CF801A08067
S1133B10B18026FF03C0652D70E002C06FEF7FEF18
S1133B20C5012C870E94B71E2C012C8550E8252E38
S1133B30222A830123FC1CC006C0B70180E290E066
S1133B400E94CD1E3A94832D90E048165906A8F39E
S1133B500FC0F50127FC859127FE81915F01B70114
S1133B6090E00E94CD1E31103A94F1E04F1A5108B2
S1133B704114510471F7EDC0843611F0893641F5D2
S1133B80F80127FF07C060817181828193810C5FF6
S1133B901F4F08C060817181882777FD8095982F19
S1133BA00E5F1F4F4FE6B42EB22297FF09C09095C7
S1133BB08095709561957F4F8F4F9F4FF0E8BF2A96
S1133BC02AE030E0A4010E94F91EA82EA81843C0E0
S1133BD0853731F43FEEB32EB2222AE030E024C020
S1133BE099EFB92EB2228F36B9F020F4883509F056
S1133BF0B3C00DC0803721F0883709F0ADC002C0D2
S1133C0020E1B22AB4FE0BC084E0B82A08C024FF25
S1133C1009C0E6E0BE2A06C028E030E005C020E185
S1133C2030E002C020E132E0F801B7FE07C0608155
S1133C307181828193810C5F1F4F06C06081718105
S1133C4080E090E00E5F1F4FA4010E94F91EA82E91
S1133C50A818FFE7BF22B6FE0BC02B2D2E7FA5149C
S1133C6050F4B4FE0AC0B2FC08C02B2D2E7E05C051
S1133C707A2C2B2D03C07A2C01C0752C24FF0DC087
S1133C80FE01EA0DF11D8081803311F4297E09C003
S1133C9022FF06C07394739404C0822F867809F0BF
S1133CA0739423FD14C020FF0FC05A2C731460F4C6
S1133CB0530C5718732C08C0B70180E290E02C878E
S1133CC00E94CD1E73942C857314B0F304C0731436
S1133CD010F4371801C0312C24FF12C0B70180E35F
S1133CE090E02C870E94CD1E2C8522FF1EC021FF50
S1133CF003C088E590E002C088E790E0B7010CC0FB
S1133D00822F867891F021FD02C080E201C08BE20F
S1133D1027FD8DE2B70190E00E94CD1E06C0B701D9
S1133D2080E390E00E94CD1E5A94A514C0F3AA9497
S1133D30F401EA0DF11DB701808190E00E94CD1ECF
S1133D40A110F5CF06C0B70180E290E00E94CD1E1D
S1133D503A943110F8CF43CEF7012681378102C05F
S1133D602FEF3FEFC9012C96E2E10C94731FFC0185
S1133D700590615070400110D8F7809590958E0F92
S1133D809F1F0895FC016150704001900110D8F705
S1133D90809590958E0F9F1F08950F931F93CF9337
S1133DA0DF938C01EB018B8181FD03C00FEF1FEFCB
S1133DB01AC082FF0DC02E813F818C819D812817FE
S1133DC0390764F4E881F9810193F983E88306C033
S1133DD0E885F985802F0995892B41F78E819F818C
S1133DE001969F838E83C801DF91CF911F910F911C
S1133DF00895FA01AA27283051F1203181F1E8947D
S1133E006F936E7F6E5F7F4F8F4F9F4FAF4FB1E0C9
S1133E103ED0B4E03CD0670F781F891F9A1FA11DC4
S1133E20680F791F8A1F911DA11D6A0F711D811DC5
S1133E30911DA11D20D009F468943F912AE0269F8A
S1133E4011243019305D3193DEF6CF010895462FE9
S1133E504770405D4193B3E00FD0C9F7F6CF462FCA
S1133E604F70405D4A3318F0495D31FD4052419333
S1133E7002D0A9F7EACFB4E0A695979587957795F0
S1133E806795BA95C9F700976105710508959B0177
S1133E90AC010A2E06945795479537952795BA9500
S1133EA0C9F7620F731F841F951FA01D08952F92D9
S1133EB03F924F925F926F927F928F929F92AF92B6
S1133EC0BF92CF92DF92EF92FF920F931F93CF9303
S1133ED0DF93CDB7DEB7CA1BDB0B0FB6F894DEBF9A
S1133EE00FBECDBF09942A88398848885F846E84C0
S1133EF07D848C849B84AA84B984C884DF80EE800A
S1133F00FD800C811B81AA81B981CE0FD11D0FB612
S1133F10F894DEBF0FBECDBFED010895F894FFCF36
S1133F202575652D32487A00426174746572793A58
S10D3F302025752E2575205600008B
S9030000FC
